:08000000803102288731FD2F39
:100F740021008F018731C2278731BC2F803102289D
:100F840021008C0123008C0122000C108C140C1500
:100F94008C110C168C123330F100BB30F000E030B1
:100FA400890BD22FF00BD22FF10BD22F22000C146D
:100FB4008C100C118C150C168C123330F100BB30D4
:100FC400F000E030890BE42FF00BE42FF10BE42F59
:100FD40022000C148C100C158C110C128C1633304E
:100FE400F100BB30F000E030890BF62FF00BF62F48
:0C0FF400F10BF62F080020008731BA2F07
:020000040001F9
:04000E00E23FFF3E90
:00000001FF
