:08000000803102288731FD2F39
:100F74008731C0278731BA2F8031022821008E01A2
:100F84000F308F0023008F0120000F18CA2FCB2FA2
:100F9400E12F03100E1C03140318D12FD42F2200A9
:100FA4000E14D62F22000E100330F1008A30F00008
:100FB4005630890BDB2FF00BDB2FF10BDB2F2000DE
:100FC4008F18E52FE62FFC2F03100E1C03140318B3
:100FD400EC2FEF2F22000E14F12F22000E100330FD
:100FE400F1008A30F0005630890BF62FF00BF62F03
:0C0FF400F10BF62F080020008731BA2F07
:020000040001F9
:04000E00E23FFF3E90
:00000001FF
