:08000000803102288731FD2F39
:100F700021008F018731C0278731BA2F80310228A5
:100F800021000C1423000C1021008C1423008C1061
:100F900021000C1123000C1121008C1123008C1155
:100FA00020000C1CD42FD52FD92F8C18D82FD92F37
:100FB000E12F0C18DC2FDD2FE42F8C18E02FE12F10
:100FC000E42F22000C118C1120000C18E82FE92FBF
:100FD000F02F8C1CEC2FED2FF02F22000C118C1514
:100FE00020000C1CF42FF52FFC2F8C18F82FF92F54
:100FF000FC2F22000C158C11080020008731B82F1F
:020000040001F9
:04000E00E239FF1EB6
:00000001FF
