:08000000803102288731F72F3F
:100A56008631452685312B2D8031022821000E1046
:100A66008E100E118E110E128E120E130F108F1085
:100A76000F118F110F128F120F138E018F010800A5
:100A86009E2D22000E148E140E158E150E168E1621
:100A96000E13C32D22000E108E140E158E110E127B
:100AA6008E120E13C32D22000E148E140E118E15E7
:100AB6000E168E120E17C32D22000E148E140E154E
:100AC6008E150E128E120E17C32D22000E108E14C6
:100AD6000E158E110E128E160E17C32D22000E1431
:100AE6008E100E158E150E128E160E17C32D2200A1
:100AF6000E148E100E158E150E168E160E17C32D8D
:100B060022000E148E140E158E110E128E120E1356
:100B1600C32D22000E148E140E158E150E168E166B
:100B26000E17C32D22000E148E140E158E150E12DE
:100B36008E160E17C32D7708003A0319A32DC32D61
:100B46007608003A0319442D013A03194D2D033A4C
:100B56000319562D013A03195F2D073A0319682D1B
:100B6600013A0319712D033A03197A2D013A031933
:100B7600832D0F3A03198C2D013A0319952DC32D98
:100B860008001F2E22000F148F140F158F150F1635
:100B96008F160F13442E22000F108F140F158F116E
:100BA6000F128F120F13442E22000F148F140F11E1
:100BB6008F150F168F120F17442E22000F148F1445
:100BC6000F158F150F128F120F17442E22000F10BC
:100BD6008F140F158F110F128F160F17442E220028
:100BE6000F148F100F158F150F128F160F17442E17
:100BF60022000F148F100F158F150F168F160F1753
:100C0600442E22000F148F140F158F110F128F12FE
:100C16000F13442E22000F148F140F158F150F1665
:100C26008F160F17442E22000F148F140F158F15D1
:100C36000F128F160F17442E7708003A0319242E29
:100C4600442E7608003A0319C52D013A0319CE2D14
:100C5600033A0319D72D013A0319E02D073A031970
:100C6600E92D013A0319F22D033A0319FB2D013A36
:100C76000319042E0F3A03190D2E013A0319162EE5
:100C8600442E080023008F018D010F3021008D00B6
:100C960085313125863120000D1C522E532EAD2E66
:100CA6008D18562E572EAD2E7308F7007208F600D3
:100CB6008531432586317108F7007008F6008531C5
:100CC600C42586310130F2070030F33D7308803ABF
:100CD600F80080307802031D722E0A307202031C5F
:100CE600752E762E7C2EF201F3010130F0070030CE
:100CF600F13D7108803AF80080307802031D852E98
:100D06000A307002031C882E892E912E0930F200BB
:100D16000030F3000930F0000030F10009307006B1
:100D26007104031D972E982EAD2E0930720673049A
:100D3600031D9E2E9F2EAD2E0930F6000030F700C3
:100D46008531432586310930F6000030F7008531BC
:100D5600C425863120000D18B12EB22EF42E8D1C1E
:100D6600B52EB62EF42E7308F7007208F6008531FC
:100D7600432586317108F7007008F6008531C425D1
:100D86008631FF30F207FF30F33DF31FCB2ECC2E1A
:100D9600D42E0930F2000030F300FF30F007FF30A8
:100DA600F13DF11FD72ED82EDC2EF201F301F00112
:100DB600F10170087104031DE12EE22EF42E720873
:100DC6007304031DE72EE82EF42E0030F600F7001C
:100DD6008531432586310030F600F7008531C4257C
:100DE600863120000D1CF82EF92E0B2F8D1CFC2EA3
:100DF600FD2E0B2F7308F7007208F6008531432588
:100E060086317108F7007008F6008531C4258631F1
:100E160020000D180F2F102F882F8D18132F142F29
:100E2600882F0D1D172F182F882F7308F7007208AB
:100E3600F6008531432586317108F7007008F60003
:100E46008531C42586317208023EF2000030733DBA
:100E5600F3007308803AF80080307802031D352FBE
:100E66000A307202031C382F392F512F0130F00738
:100E76000030F13D0A3072067304031D432F442FE0
:100E8600462FF201F3010B3072067304031D4C2F3B
:100E96004D2F512F0130F2000030F3007108803AD7
:100EA600F80080307802031D5A2F0A307002031CA6
:100EB6005D2F5E2F662F0930F2000030F3000930F7
:100EC600F0000030F100093070067104031D6C2F2C
:100ED6006D2F882F7308803AF80080307802031D42
:100EE600762F09307202031C792F7A2F882F09304A
:100EF600F6000030F7008531432586310930F600CB
:100F06000030F7008531C425863120000D188C2F5E
:100F16008D2FEA2F8D18902F912FEA2F8D1D942F4C
:100F2600952FEA2F7308F7007208F60085314325DE
:100F360086317108F7007008F6008531C4258631C0
:100F46007208FE3EF200FF30733DF300F31FAC2F34
:100F5600AD2FCA2FFF30F007FF30F13D720A031D97
:100F6600B82F730A031DB82FB92FBD2F0930F20011
:100F76000030F300FE307206031DC52F730A031DF1
:100F8600C52FC62FCA2F0830F2000030F300F11F1C
:100F9600CD2FCE2FD22FF201F301F001F10170080F
:100FA6007104031DD72FD82FEA2F72087304031D6F
:100FB600DD2FDE2FEA2F0030F600F70085314325BE
:100FC60086310030F600F7008531C42586310D30B4
:100FD600F900AF30F800B630890BEF2FF80BEF2F82
:100FE600F90BEF2F00320800F001F101F201F301D5
:0A0FF600F401F501200085312B2DD8
:020000040001F9
:04000E00E23FFF3E90
:00000001FF
