:08000000803102288731FD2F39
:100EF40022000F148F100F118F15080022000F10FD
:100F04008F140F158F11080022000F108F140F116A
:100F14008F11080022000F108F100F158F11080079
:100F240023008D018C0121000F108F100F118F11E0
:100F340095130F3024008D0021008D150D158D148F
:100F44000D1420000C1CA72FA82FAB2F87318C2742
:100F5400873120008C1CAF2FB02FB32F873180270F
:100F6400873120000C1DB72FB82FBB2F8731862760
:100F7400873120000C18BF2FC02FCB2F8C18C32F04
:100F8400C42FCB2F0C19C72FC82FCB2F87317A270B
:100F9400873120000D18CF2FD02FD32F87318027F2
:100FA400873120008D19D72FD82FDB2F87317A274F
:100FB400873120000D19DF2FE02FE32F873186279B
:100FC400873120008D18E72FE82FEB2F87318C27EE
:100FD40087310F3020000D05F0000F307006031D1F
:100FE400F42FF52FA32F22000F108F100F118F1144
:0C0FF400A32F8031022820008731922FAB
:020000040001F9
:04000E00E23FFF3E90
:00000001FF
